:10000000EBC4000010C500000EC500000CC50000C8
:100010000AC5000008C5000006C5000004C50000B0
:1000200002C5000000C50000FEC40000FCC40000C2
:10003000FAC40000F8C40000F6C40000F4C40000D4
:10004000F2C40000F0C40000EEC40000ECC40000E4
:10005000EAC40000E8C40000E6C400000C945D0D92
:10006000E2C40000E0C40000DEC40000DCC4000004
:10007000DAC40000D8C40000D6C40000D4C4000014
:10008000D2C40000D0C40000CEC40000CCC4000024
:1000900015C50000C8C40000C6C40000C4C40000E8
:1000A000C2C40000C0C40000BEC4000001A0A96218
:1000B000D63F85A7B6D4FA15661709BD5D14342658
:1000C00059729154064FF8B05B7493998CF245CDF8
:1000D000EA4EAD104AE5CAEEDFC66F9F888E02CCAD
:1000E00008A877946D21B128E4397996607181165A
:1000F0002EE678B9C4469A42AEB77C43B3221A863C
:10010000C2323D2D9CD229E9639BD131385E1E3627
:1001100041BB03182B3EBF6861FC52C0DEE00A58A9
:10012000135A00BE1C900E5312FDE26EBACE242765
:10013000447F87A3A1D55040E3F983F7C7A235C810
:10014000DB19AB2F1125ED339E55E148AF7384DAEF
:100150002AAA51EB9D95B2CBE77080FE4C6504EF67
:10016000C5F1C33AB4F55F2389DD30A58BD3F6DC46
:100170004D64D7F08FEC56375CA40D07768A2C0BB4
:10018000B5D8C11FE83BF44B1B476C49677B92CF46
:10019000757E20D97D3C977AD0056B0F1DFB829828
:1001A000578DF36ABCACC9A6FFB8690C4C4D7207F9
:1001B0005A49338DA2AB463D630DA097FFF0F5FA87
:1001C000C0E9DB62E4E17443DC86182937F406E217
:1001D000ED6F90481E2D1DEA739454DF25F64727D6
:1001E000D91177C9841C5B5C5181A6223E2496C834
:1001F0008AEC827C09B8454A57BB2F50758E6170D6
:100200008C6CAFD0FDB41BAEDEFE3BB536BD5501E8
:100210000E9C41565FB3260383BA134BCAC50AF836
:1002200060A5B9C7C39832FB12F9A792AA68F37800
:100230007E05202102E8BFF2B0598FD2CB87651529
:10024000F11AB230ADEE58A38B661F2CD75D19851D
:10025000A8E6D36BA10C91936A5E0B79E3DD004FA6
:100260003C896E7169A9AC40E59928C6314E7ACDBA
:10027000089E7DEF17FC88D8A46D4495D1B7D49B18
:10028000BE2A34642BCF2EEB38CE23E03A3FF77BE7
:100290009F1053BC526716E7807604C4B6C1C27F74
:1002A0009ADAD53942149DB10F35D6CCB9DA380C6B
:1002B000A29C091F06B1B6FD1A692330C4DE01D124
:1002C000F45829371C7DD5BFFFBDC8C9CF65BE7B9B
:1002D0007897986708B32657F7FA40AD8E75A67CD5
:1002E000DB918B5199D4177A908DCE63CB4EA0AB16
:1002F000183A5B507F2174C1BBB8B7BA0B35953142
:10030000599A4D04071E5A7613F37183D08603A8B9
:100310003942AA28E6E4D85DD3D06E6F96FB5EBC66
:1003200056C25F859BE7AFD23B846AA753C5444959
:10033000A5F936723D2CD91BA1F54F939D68474115
:1003400016CA2A4CA387D6E5192E77156D70C0DF23
:10035000B20046EDC66C4360922DA922458F3455FC
:10036000AEA40A6632E0DC02ACE8208C89624AFE68
:10037000EEC3E33CF17905E9F62733CCF29E118117
:100380007E80108A829F480DD7B4FC2FB5C7DD88C8
:10039000146B2B54EA1D945CB0EF1224CDEBE1E218
:1003A00064733F0E5261253EF80F4BECC00030F6EF
:1003B00002493D106E20C9A62FFE2C2B752E452616
:1003C000AB48A980FC04CCD3B5BAA338317D01D9A0
:1003D000A77B96B663694EF7DEE078CA50AA4191D2
:1003E0006588E42185DA3A27BE1C3E425E17527FBB
:1003F0001F89246F8F5C67740E12878DE934ED734B
:10040000C4F8615B05DF594C97798318A45595EBC7
:10041000BD53F5F15766469FB2810951862216DD1C
:1004200023937629C2D71DD4BF363FEA4B1132B988
:10043000625460D66D439A0D929CB0EF586C9D77D4
:100440002D70FAF3B30BE2407EF48AE58C3C5671D2
:10045000D164E1820ACB131590EC0399AF145D0FC0
:10046000334A94A5A8351BE36AC628FF4DE72584C7
:10047000AC08AEC5A22AB8370C7AA0C3CEAD061A16
:100480009E8BFBD5D0C11ED0B49BB144F247C76848
:10049000CF72BB4F5AF9DC6BDBD2E87CC8EE98A177
:1004A000E6D839075FFD8E19B73BBCCD7CE381737D
:1004B000B211BF6F2098FE7596EF6CDA50E10972A9
:1004C0005445BA34805BED3E532C87A457F3333F39
:1004D0003CB767B4A325604F076B1B47150FE40AB1
:1004E000EAD1327836498D4BD2BCA5DC1D0D4DCDFD
:1004F0009A825FFC9465BEE2F4C91E44CB9E0C64F4
:10050000712663B314E840708A0E19426DAC8810EE
:100510005CDF41A9ADE5FB74CCD5068E5986CE1FB4
:100520003D76E08FB977277BA6D829D3ECB813F7AF
:10053000FAC3516ADE4A5AEBC28B234892CF62A8B3
:1005400099F8D02E856143C8BDF00593CA4EF17D60
:1005500030FDC469662F08B152F921E67A2BDD39E6
:1005600084FFC091D637D47F2D9B5DA13B6EB5C56E
:100570004604F590EE7E831C0356B6AA001701359B
:1005800055790B12BB1A31E7022816C1F6A2DB1807
:100590009C89683897ABC72AD73AF2C6244CB05822
:1005A000A0225E9DD9A7E9AEAF8C959F28B720D732
:1005B000B030C30919C067D6003C7EE7E9F4085A99
:1005C000F8B82E05A6259E5CD8150DE1F611546BE2
:1005D000CD2146665E84AD06382944C5A2CEF1AA77
:1005E000C1407186B5EFFC36A8CB0A48274564A305
:1005F000AF8CB2C69F0789DC17D34979FBFE1DD0AB
:10060000B9884352BC01782B7D94C70EDEA5D59BDB
:10061000CCF7617AC274813903AB96A037BD2D72D5
:10062000753FC9D48E6FF98DED62DB1CDF04AC1B06
:100630006C144B63D0BFB482EC7B1A5992D2106019
:10064000B63D5FE6806E70C4F235D97CEEE541A41C
:100650005B50DDBB4CF31F9D5D57555197E35842EE
:100660004D9C73BAC877316926AEEA8ADA22B3871D
:1006700056FA930B341633E8E453BEA9B13A3EF56B
:10068000906ACF3B12FD8F9AA7479199EB0F24FFF9
:100690002318854E7F0CE0A1D2D12C2A4A024F1E8E
:1006A00095688B98836D76CA6532132FC3829AA49E
:1006B000BA8160373435FC80A8516567ED305F1032
:1006C000D34A272F13B92AD2CCE1EFAEEBBEF4BD4B
:1006D000CF43B3C58884B7DD3940CE486D9B726186
:1006E0007EE7A14E532E773BE2C936221B6E73B1D3
:1006F00003B24C87A9D44D0FD8156CAA18F64957E8
:100700005DFB7A149463A011B09EDE0546C8EE47E7
:10071000DBDC24899C919729E97BC1071EB8FDFE8B
:10072000ACC662984FF179E0E86B7856B68D04500C
:1007300086CA6F20E6EAE576171C747FBC0D2C850F
:10074000F76696E48B753F4BD938AF7CDA0B832D77
:100750003132A2F51D594145BF3C1FF8F98AD01628
:10076000256912999D2195AB01A6D7B5C07DFF588B
:100770000E3A92D155E3089FD63E528EFAA3C70295
:10078000CDDF8F64198CF3A70C5E0A6A09F0935BC6
:1007900042C20623EC71ADB4CBBB7028D51A5C33D2
:1007A000685A004490A5C4263D2BF25496ADDA1F3A
:1007B000ED33E18169080D0ADB35779A64D1FC7865
:1007C000AA1BD067A0DDFA6C63710584176A894F94
:1007D000667FC65055926FBDE7D240728DBBEC0666
:1007E000428AE4889D7E7A822713411AAFC8A47694
:1007F000B4C2FE6D1CD96130B37CEAF7290FF23B1D
:1008000051C1DE5FE52A2F990B5DA32B4AAB95A55D
:10081000D35856EE283100CC1546CAE686383C65DA
:10082000F5E39FD65B094983702D53A97DE2C4ACE3
:100830008E5EB825F4B957F3F16847B2A25920CEBD
:1008400034795C900E1EBED52223B1C91862162ED3
:10085000913E078FD83F933DD49BDF8521FB1174D8
:1008600097C7D7DC4C194598E943024BBCC3049C9D
:100870006BF07552A726F6C5BACFB0B7AE5AA1BF76
:10088000038B80126E0CEBF9C04424EF10F8A88C97
:10089000E87BFF9E2CCD603687B594A654733A143E
:1008A0004E011DB6FD37484D39CBE03270510386FD
:1008B000400D4FEB3ECCD18735BDF50B5ED0F8F245
:1008C000D5E26C310CADFC21C378C106C24C55E6B3
:1008D0004A3448111EDAE71A84A096A7E37FAF6373
:1008E0009CFA235B79C89EBAB2C922124BB3A1B657
:1008F0003249A2E189391066C5078F54EA91CA3F8F
:10090000F919F0D746BC281B61E82F6AAE9DF64E58
:100910000914774DDB1F2E7B7CF143A300B8138CA9
:1009200085B9297588FDD2561C509741E53B60B5C5
:10093000C064EE98D62D25A4AACD7DA883C6ABBEF3
:100940004499263CCE9FBFD3CB767A7E82018A9A89
:10095000801D0EB05CD43862F430E08E53B702577D
:10096000ACA6520A6D9265172433457274B1B4F780
:100970005DED2CFF47375A90BBDF2A165995D9C435
:10098000276773C768FEA5DD6B5F93D8EC053A8DCA
:100990006EFB3DA96936F394DEEF156F8B9B080F54
:1009A000DC81182004E471CFE92B4258A877A6E037
:1009B000F7435A3585E272978FB71A6287380D6709
:1009C000C7BE4F3E2076378F68B7A9263F2B10E36E
:1009D000307E900E850A3C0711241FBECFEFDAE06F
:1009E000DEBFCDBF11E0A0E0B1E0ECE2FCE102C06F
:1009F00005900D92A031B107D9F723E0A0E1B1E055
:100A000001C01D92A432B207E1F719E0C8EDD9E0A8
:100A100004C02297FE010E94FC0DC63DD107C9F714
:100A200070D10C94140EECCA10927B01589A599A0A
:100A3000E9EBF0E080818E7F808380818D7F8083F1
:100A400080E28093B80085E48093BC000895880F0D
:100A50008093BA000895613298F420917B0124308C
:100A600089F460933201FC0184E391E0DC012A2FD8
:100A7000281B261718F421912D93F9CF80E00895B3
:100A800081E0089582E00895909377018093760144
:100A900008959093790180937801089585ED80936E
:100AA000BC008091BC0084FDFCCF10927B010895B6
:100AB00085EC8093BC0010927B0108951F920F92E9
:100AC0000FB60F9211242F933F934F935F936F9321
:100AD0007F938F939F93AF93BF93EF93FF938091F7
:100AE000B900887F803609F495C068F5883209F42A
:100AF0005BC090F4803109F454C038F4882309F4C1
:100B0000ECC0883009F44DC0EBC0883109F44CC00A
:100B1000803209F45EC0E4C0803409F469C048F44E
:100B2000803309F456C0883309F0DAC0809310018D
:100B3000A0C0803509F450C0883509F45EC08834FF
:100B400009F0CEC0CCC0883909F4BDC0A8F48837FC
:100B500009F460C038F4883609F45CC0803709F4C1
:100B600059C0BEC0883809F4AEC0803909F458C0F5
:100B7000803809F0B5C054C0803B09F47CC038F41B
:100B8000803A09F45FC0883A09F475C0A9C0803C76
:100B900009F49DC0883C09F49AC0883B09F480C0E0
:100BA0009FC080917A0111C09091550180915401AC
:100BB000981708F094C0E091550181E08E0F809362
:100BC0005501F0E0EA5AFE4F80818093BB0085EC2E
:100BD0007BC08093100183C0E091550181E08E0FAE
:100BE000809355018091BB00F0E0EA5AFE4F80836C
:100BF000909155018091540163C0E091550181E0CD
:100C00008E0F809355018091BB00F0E0EA5AFE4FB1
:100C1000808365C083E080937B0110921101D7CF60
:100C200080911101803208F04EC0E091110181E005
:100C30008E0F809311018091BB00F0E0EE5EFE4FBD
:100C40008083C5CF80911101803230F4E091110191
:100C5000F0E0EE5EFE4F108221DF6091110170E046
:100C6000E0917601F091770182E191E0099510928F
:100C700011011EDF35C084E080937B0110923301A7
:100C800010923201E0917801F091790109958091FB
:100C90003201811105C081E080933201109234014C
:100CA000E091330181E08E0F80933301F0E0EC5C42
:100CB000FE4F80818093BB0090913301809132017F
:100CC000981708F484CF85E88093BC0009C085ECB0
:100CD0008093BC0010927B0103C010921001DEDEF5
:100CE000FF91EF91BF91AF919F918F917F916F9104
:100CF0005F914F913F912F910F900FBE0F901F90DA
:100D0000189525D7B7D0B7D0FECF52985A9A539896
:100D10005B9A54985C9A55985D9A56985E9A579843
:100D20005F9A24982C9A25982D9A08954A9B03C07F
:100D300080E090E002C080E890E04B9902C0805CC7
:100D40009F4F4C9B80964D9B40964E9B08964F9B89
:100D500004961C9B02961D9B01960895D6DFE6DF44
:100D60008C010170112710939901009398017C0167
:100D700022E0E222FF24F0929701E0929601FC012A
:100D8000E470FF27F0938D01E0938C01DC01A870E3
:100D9000BB27B0938B01A0938A01AC01407155270A
:100DA00050939D0140939C019C0120723327309306
:100DB0009B0120939A01BC016078772770939F0173
:100DC00060939E01807499279093A1018093A00164
:100DD000309719F0C1E0109709F4C0E0CC2ED12C67
:100DE000D0928901C09288018090900190909101E9
:100DF000A0909201B0909301C0909401D090950181
:100E0000D0918101DF93D0918001DF93D091830154
:100E1000DF93D0918201DF93D0918501DF93D09150
:100E20008401DF93D0918701DF93D0918601DF9316
:100E3000D0917C01DF93D0917D01DF93D0917E0131
:100E4000DF93D0917F01DF931F92CF93BF93AF9336
:100E5000FF93EF93E0918F01EF93E0918E01EF9379
:100E6000AED48DB79EB744960FB6F8949EBF0FBE12
:100E70008DBF75CF6DC572DF82E090E088D390E0C2
:100E8000959587959595879580937F0185E090E06E
:100E90007ED390E0959587959595879580937E0173
:100EA00088E090E074D390E043E0959587954A956B
:100EB000E1F780937D018BE090E069D390E053E00F
:100EC000959587955A95E1F780937C010895E09177
:100ED000A301F091A4013097E1F03091CB01209172
:100EE000CA013217B0F040E0242F30E02617370750
:100EF00054F4DC01A20FB31F5C91D901A453BE4F7F
:100F00005C934F5FF1CF1092CB016093CA01CB018C
:100F100009940895E091A501F091A601309729F078
:100F20001092A9011092A801099408951092CB0182
:100F30001092CA011092A9011092A80175CDCF9309
:100F4000DF93EC01862F83DD8AE897E0A2DD87E658
:100F500097E09ADDCE01DF91CF91E8CFF0CFCF932C
:100F6000DF931F92CDB7DEB769838091A7018823F5
:100F700089F08091A801803288F48091A901E82F3E
:100F8000F0E0E655FE4F60838F5F8093A901809368
:100F9000A80104C061E0CE0101965DDD0F90DF91F4
:100FA000CF910895CF92DF92FF920F931F93CF932B
:100FB000DF931F92CDB7DEB78C01CB012091A70143
:100FC000222371F0F62E6B018C2D8F19841790F46B
:100FD000F60161916F01C8014983C1DF4981F4CFF6
:100FE000642F0F90DF91CF911F910F91FF90DF90B1
:100FF000CF9031CD0F90DF91CF911F910F91FF9046
:10100000DF90CF9008959091CB018091CA019817FD
:1010100048F4E92FF0E0E453FE4F80819F5F909306
:10102000CB01089580E008957093A4016093A3011B
:1010300008957093A6016093A50108958F929F92E1
:10104000AF92BF92CF92DF92EF92FF920F931F93D6
:10105000CF93DF93CDB7DEB72A970FB6F894DEBFF4
:101060000FBECDBFDA0126E0629FB00111246455A6
:10107000764F9E012F5F3F4FAE01455F5F4FFC01F2
:101080001191CF01E12FF0E0E455F74F1491F901F0
:1010900011939F01E417F50791F7AB80FB012491B1
:1010A000FE802F2530E04A2D4770EA84DD8088E0FD
:1010B00090E0841B9109490102C0880C991C8A9513
:1010C000E2F702C0359527954A95E2F728292E19AF
:1010D0002D252C9399803196E4913A81E327F0E015
:1010E000292D2770B88488E090E0821B9109AF0118
:1010F00002C0440F551F8A95E2F702C0F595E795A7
:101100002A95E2F7E42BEF19EB251196EC93119752
:10111000FB01329644912F81422750E0C9848C2DE7
:101120008770C82E88E090E08C1991098A01082EFA
:1011300001C0000F0A94EAF70C2C02C055954795A0
:101140000A94E2F7402B4A19492512964C931297BC
:10115000319604910D2510E0EB2DE7709C8148E05D
:1011600050E04E1B5109480102C0880C991C4A9559
:10117000E2F7A40102C015950795EA95E2F7402B26
:10118000491B4A2513964C931397FB013496E4911F
:10119000E327F0E0122F177028E030E0211B31091F
:1011A000AF0101C0440F2A95EAF702C0F595E79513
:1011B0001A95E2F7E42BE91BED251496EC931497AE
:1011C000FB01359664916B2570E09B0102C0220FF4
:1011D000331F8A95E2F702C075956795CA94E2F7C6
:1011E000622B6F196E2515966C932A960FB6F8949C
:1011F000DEBF0FBECDBFDF91CF911F910F91FF904A
:10120000EF90DF90CF90BF90AF909F908F90089518
:101210000F931F93CF93DF93DC01EB0150E08C81A0
:10122000F42FEE27E80FF11DE455FF4F7491CA012A
:1012300001968770992713966C911397F82FEE27D4
:10124000E60FF11DE455FF4F64916727F9016083B4
:101250006A81F42FEE27E60FF11DE455FF4F7491DC
:1012600015966C911597F82FEE27E60FF11DE455B2
:10127000FF4F64916727F90161836D81F42FEE2799
:10128000E60FF11DE455FF4F749117966C91179777
:10129000F82FEE27E60FF11DE455FF4F6491672705
:1012A000F90162836881F42FEE27E60FF11DE45502
:1012B000FF4F749112966C911297F82FEE27E60F5C
:1012C000F11DE455FF4F64916727F901638369813C
:1012D000F42FEE27E60FF11DE455FF4F749114969D
:1012E0006C911497F82FEE27E60FF11DE455FF4F90
:1012F00064916727F90164836B81F42FEE27E60F71
:10130000F11DE455FF4F749119966C911997F82FC0
:10131000EE27E60FF11DE455FF4F64916727F901B1
:1013200065836C91F42FEE27E60FF11DE455FF4F16
:10133000749116966C911697F82FEE27E60FF11D13
:10134000E455FF4F64916727F901668311966C910C
:101350001197F42FEE27E60FF11DE455FF4F74911E
:1013600018966C911897F82FEE27E60FF11DE455AB
:10137000FF4F64916727F90167832881F42FEE27D7
:10138000E20FF11DE455FF4F349111962C91119706
:10139000F82FEE27E20FF11DE455FF4F249123278C
:1013A000F80120832D81F42FEE27E20FF11DE45583
:1013B000FF4F349114962C911497F82FEE27E20FDB
:1013C000F11DE455FF4F24912327F80121832B8140
:1013D000F42FEE27E20FF11DE455FF4F34912C91CD
:1013E000F82FEE27E20FF11DE455FF4F249123273C
:1013F000F80122832A81F42FEE27E20FF11DE45534
:10140000FF4F349119962C911997F82FEE27E20F80
:10141000F11DE455FF4F24912327F80123832C81EC
:10142000F42FEE27E20FF11DE455FF4F349117968C
:101430002C911797F82FEE27E20FF11DE455FF4F7F
:1014400024912327F80124832981F42FEE27E20F2A
:10145000F11DE455FF4F349118962C911897F82FF1
:10146000EE27E20FF11DE455FF4F24912327F801E9
:10147000258313962C911397F42FEE27E20FF11D7D
:10148000E455FF4F349115962C911597F82FEE27C0
:10149000E20FF11DE455FF4F24912327F801268325
:1014A00012962C911297F42FEE27E20FF11DE455BE
:1014B000FF4F449116962C91F82FEE27E20FF11D65
:1014C000E455FF4F84918427F8018783DF91CF9102
:1014D0001F910F910895AF92BF92CF92DF92EF923A
:1014E000FF920F931F93CF93DF93CDB7DEB766972D
:1014F0000FB6F894DEBF0FBECDBFDC01FE013B96F8
:101500009E012F5F3F4F69011E2F0F2F2D912293B8
:10151000EC15FD05D9F7DC011A965E0131E1A30E49
:10152000B11CFE0177968D918293EA15FB05D9F7E0
:10153000E12CF12C412F502F6E2DC6017FDD46E0AE
:1015400050E0B501812F902F5BD3892B39F08FEFBD
:10155000E81AF80A27E0E216F10461F70CEE11E050
:1015600024EF31E04E2DB501C60152DE66960FB66E
:10157000F894DEBF0FBECDBFDF91CF911F910F91C9
:10158000FF90EF90DF90CF90BF90AF9008958031A3
:10159000910528F4FC01E050FF4F8081089580E020
:1015A000089587E492E097DF81E08093190308951E
:1015B000CF92DF92EF92FF920F931F93CF93DF931F
:1015C0001F92CDB7DEB76C0181E08093070381E005
:1015D000C816D10441F482EA91E015DD80931A0324
:1015E000109208035FC0A2E0CA16D1040CF45AC0DE
:1015F00082EA91E008DD682F01E010E0F12CE12C97
:1016000082EA91E06983FFDC6981603F39F48535C6
:1016100011F08A3A49F41092190306C0603421F49B
:10162000811102C0FF24F39490911903262F30E01A
:10163000992391F0462F477050E0D901A95FBD4F23
:10164000FA01E451FE4F90819827FA01EC50FE4FC9
:101650008081980F9C9304C0F901E95FFD4F80835E
:101660006F3411F4EE24E3946F5F0F5F1F4F0C157E
:101670001D0531F6E11003C0F11003C013C0FF20B7
:1016800039F080E1E7E4F2E0DF011D928A95E9F7A5
:101690000F90DF91CF911F910F91FF90EF90DF900E
:1016A000CF907FCF0F90DF91CF911F910F91FF903F
:1016B000EF90DF90CF900895AF92BF92CF92DF92DC
:1016C000EF92FF920F931F93CF93DF932091190313
:1016D000222341F1ADEFB1E06C01A62EB12CC42F55
:1016E000D0E0CD5FD1409601281B390B2A153B0570
:1016F000ACF4F60151916F019E012A0F3B1F277038
:10170000332789010C501E4FF8014081541B24518E
:101710003E4FF901208152275D93E5CF462F6DEFB3
:1017200071E002C0462FBC0182EA91E0DF91CF91C7
:101730001F910F91FF90EF90DF90CF90BF90AF90EF
:1017400031CC80911A03882359F08A3FD9F4409113
:101750001A0380911A0390E066E0895F9D4FACCF39
:101760008091080390E040E068E0875F9C4FA4DF31
:1017700088E080930803E0910502F091060230971B
:10178000E9F0099480910703882319F01092FC0175
:1017900005C08091FC01885F8093FC0140911A0391
:1017A0002091FC0180911A03420F90E0820F911D5D
:1017B00068E0895F9D4F80DF1092070308952F92A4
:1017C0003F924F925F926F927F928F929F92AF92D1
:1017D000BF92CF92DF92EF92FF920F931F93CF931E
:1017E000DF93CDB7DEB7FC013A019D8D8E8DB8A198
:1017F0004DA05EA0AFA15F8D587148E0549F1001CD
:1018000011249F739229909309034F8D467090E2A3
:10181000499FA00111248F73842B80930A03C20176
:1018200088719927880F991F880F991FBF71B82B4E
:101830005F8D40E8549FC0011124B82BB0930B0377
:10184000C20155E0880F991F5A95E1F7AF71A82B97
:10185000A0930C03672B11F080E801C080E0232BDC
:1018600011F030E401C030E0382B892811F080E21B
:1018700001C080E0232F282B8F89988D892B11F0B0
:1018800030E101C030E0322B898D9A8D892B11F027
:1018900024E001C020E0232B8D899E89892B11F043
:1018A00092E001C090E0292B8B8D9C8D892B11F04B
:1018B00098E001C090E0822F892B809580930D03E2
:1018C000EF2811F050E401C050E0AB2811F040E2E5
:1018D00001C040E0012B11F030E101C030E0CD2823
:1018E00011F098E001C090E0EF2B11F082E001C010
:1018F00080E021E0672809F420E0252B242B232B0E
:10190000292B282B89A19AA1892B11F080E801C0ED
:1019100080E0282B8BA19CA1892B11F084E001C0D1
:1019200080E0282B209520930E03DF91CF911F910B
:101930000F91FF90EF90DF90CF90BF90AF909F906E
:101940008F907F906F905F904F903F902F90089571
:101950008F929F92AF92BF92CF92DF92EF92FF92BF
:101960000F931F93CF93DF9340E051E06FEF70E050
:1019700087E092E052D180E1E9E0F3E0DF011D92DF
:101980008A95E9F7109201031092020384EA80938A
:10199000030380E28093040381E080930503809336
:1019A0000603E0E0F1E080E09191890FB1E0EE30D4
:1019B000FB07D1F795E5980F90930E01865580931C
:1019C0000F01C7E2D2E0A7E3B2E0E0E0F1E08191ED
:1019D00089938D9381E0E031F807C9F7E7E4F2E0FD
:1019E000119292E0E735F907D9F71F921F921F92E3
:1019F0001F921F921F921F921F9280910B0190E0E5
:101A000063E0959587956A95E1F78F93809108013A
:101A100090E073E0959587957A95E1F78F938091A3
:101A2000050190E095958795959587958F93809181
:101A3000020190E095958795959587958F931F92D4
:101A40001F921F921F921F921F921F921F92812C12
:101A5000912CA12CB12CC12CD12CE12CF12C00E02B
:101A600010E020E030E040E050E060E070E080E036
:101A700090E0A5DE62E570E082EA91E06FDA68ED61
:101A80007AE082EA91E0D0DAADB7BEB754960FB6ED
:101A9000F894BEBF0FBEADBF61EA7BE082EA91E081
:101AA000DF91CF911F910F91FF90EF90DF90CF903A
:101AB000BF90AF909F908F90BCCA1F920F920FB6AD
:101AC0000F9211242F933F938F939F93AF93BF93C4
:101AD00080911C0390911D03A0911E03B0911F03E0
:101AE00030911B0326E0230F2D3720F40296A11D11
:101AF000B11D05C029E8230F0396A11DB11D209338
:101B00001B0380931C0390931D03A0931E03B093AB
:101B10001F038091200390912103A0912203B09193
:101B200023030196A11DB11D8093200390932103EF
:101B3000A0932203B0932303BF91AF919F918F9104
:101B40003F912F910F900FBE0F901F901895789492
:101B500084B5826084BD84B5816084BD85B58260B2
:101B600085BD85B5816085BDEEE6F0E08081816050
:101B70008083E1E8F0E01082808182608083808150
:101B800081608083E0E8F0E0808181608083E1EB28
:101B9000F0E0808184608083E0EBF0E08081816010
:101BA0008083E1E9F0E080818260808380818160D0
:101BB0008083E0E9F0E0808181608083E1ECF0E007
:101BC000808182608083808181608083E0ECF0E0AE
:101BD000808181608083EAE7F0E080818460808397
:101BE0008081826080838081816080838081806841
:101BF00080830895EE0FFF1F0590F491E02D099466
:101C0000FB01DC0104C08D910190801921F4415049
:101C10005040C8F7881B990B0895DC0101C06D93F3
:0C1C200041505040E0F70895F894FFCFC9
:101C2C00FC047EFC047EFC047EFC047E00000000B0
:00000001FF
